:100000000C9434000C945A000C945A000C945A002E
:100010000C940F030C9445030C945A000C945A0052
:100020000C945A000C945A000C9439010C945A0008
:100030000C945A000C945A000C945A000C945A00D8
:100040000C945A000C945A000C945A000C945A00C8
:100050000C945A000C94DF010C945A000C945A0032
:100060000C94E8060C945A0011241FBECFEFD8E080
:10007000DEBFCDBF14BE88E10FB6F8948093600058
:10008000109260000FBE13E0A0E0B1E0EEEFFFE2DF
:1000900002C005900D92A035B107D9F714E0A0E594
:1000A000B3E001C01D92A136B107E1F70E945C00E8
:1000B0000C94FD170C9400000E9452038FEF99E6F8
:1000C000A8E181509040A040E1F700C0000081E627
:1000D0009091C00097FD29C08436C9F0853638F468
:1000E000823679F0833680F48136E1F407C08636B3
:1000F000A1F0863678F08736A9F412C00E94A504D4
:1001000011C00E94C0030EC00E94F4030BC00E94E5
:100110004D0408C00E94500405C00E94970302C00D
:100120000E94AE0380913701D3CF8091C600D0CF1B
:1001300080E091E090935E0480935D041092C5008E
:1001400087E68093C40088E18093C10086E08093B5
:10015000C20008959091C00095FFFCCF8093C60027
:1001600008951F93182F8A3019F48DE00E94AA0079
:10017000812F0E94AA0080E090E01F910895219AAB
:1001800082E48093810080E280936F000895299A31
:1001900085E38A95F1F7000085B192E0892785B95A
:1001A0000895609150037091510380915203909192
:1001B00053030E949F112DEB37E346E055E30E9465
:1001C000750F609354037093550380935603909377
:1001D00057030895089580E00895EF92FF920F93DA
:1001E0001F9323E333E948E853E40E94170F23E306
:1001F00033E948E853E40E946F100E94E4147B0145
:100200008C010E94D100C801B70120E030EC45EA22
:1002100053E40E94750F209154033091550340918F
:100220005603509157030E94750F20E030E040E0E4
:100230005FE30E94750F20E030E048EC52E40E943A
:10024000750F7B018C01609158037091590380E018
:1002500090E00E949F119B01AC01C801B7010E9470
:10026000440F0E94A10DCB011F910F91FF90EF90C1
:1002700008951F920F920FB60F9211248F939F93A0
:10028000AF93BF938091810090E489278093810090
:100290008091810086FD05C0109285001092840037
:1002A0000EC08091860090918700A0E0B0E080931E
:1002B000500390935103A0935203B0935303BF9103
:1002C000AF919F918F910F900FBE0F901F90189537
:1002D00080E480937C00EAE7F0E087E0808380811F
:1002E00088688083808180648083089590917A00FB
:1002F000905890937A0090917C0010927C0081300D
:1003000021F480917C0081640BC0882321F48091CA
:100310007C00806405C0833029F480917C00836474
:1003200080937C0080917A00805880937A000895B1
:100330000E94760180917A00806480937A00809197
:100340007A0086FDFCCF2091780030917900C901B8
:10035000089520915E0330915F0382E390E0289F2F
:10036000B001299F700D389F700D1124672F7727DA
:100370006695669580E090E00E949F11262F372FAA
:10038000482F592F209360033093610340936203F9
:10039000509363030895FC0180915A0390915B038D
:1003A0009183808380915C0390915D03938382832A
:1003B00080915E0390915F039583848308951F92DB
:1003C0000F920FB60F9211242F933F934F935F9389
:1003D0006F937F938F939F93AF93BF93EF93FF930D
:1003E00080917C008F70813051F4809178009091E1
:1003F000790090935F0380935E0380E01FC080913B
:100400007C0090E08F709070009751F4809178009C
:100410009091790090935D0380935C0383E00EC01C
:1004200080917C008F70833059F480917800909196
:10043000790090935B0380935A0381E00E947601D8
:1004400080917A00806480937A00FF91EF91BF9150
:10045000AF919F918F917F916F915F914F913F915C
:100460002F910F900FBE0F901F901895F999FECF06
:1004700092BD81BD60BDFA9AF99A08951F93DF93EA
:10048000CF930F92CDB7DEB7382F162F213081F4DE
:1004900087E090E0632F49830E94360288E090E075
:1004A000612F0E94360289E090E04981642F08C0E4
:1004B0008AE090E0632F0E9436028BE090E0612F8B
:1004C0000E9436020F90CF91DF911F910895F99904
:1004D000FECF92BD81BDF89A80B508950F931F930A
:1004E000CF93DF93082F192FC0E0D0E0CE010796FD
:1004F0000E946702F80181938F012196C530D105D2
:10050000A9F7DF91CF911F910F910895DF93CF93BA
:1005100000D000D000D0CDB7DEB7CE0101960E944A
:100520006E0289816A814B8121E00E94E50B8C81FA
:100530006D814E8122E00E94E50B26960FB6F8945D
:10054000DEBF0FBECDBFCF91DF910895DF93CF9374
:1005500000D000D00F92CDB7DEB7CE0101960E9439
:100560006E028DB79EB708970FB6F8949EBF0FBE68
:100570008DBFEDB7FEB731968EE091E0ADB7BEB757
:1005800012969C938E9311978981828313828A811C
:10059000848315828B81868317820E9496140F9024
:1005A0000F90EDB7FEB7319681E291E0ADB7BEB7DF
:1005B00012969C938E9311978C81828313828D81E6
:1005C000848315820E9496148DB79EB706960FB647
:1005D000F8949EBF0FBE8DBF0F900F900F900F909D
:1005E0000F90CF91DF910895CF93DF930E94A602E1
:1005F000C0E0D0E0CE016FEF0E9436022196CC30F1
:10060000D105C1F7DF91CF91089586E0809368000E
:1006100084E080936C0085E080936D0008951F92C4
:100620000F920FB60F9211242F933F934F935F9326
:100630006F937F938F939F93AF93BF93EF93FF93AA
:10064000809164038F5F8093640380E391E00E9454
:10065000AB1480916403843021F41092640381E62A
:1006600001C083E680933701FF91EF91BF91AF9175
:100670009F918F917F916F915F914F913F912F91BA
:100680000F900FBE0F901F9018951F920F920FB6EC
:100690000F9211248F9389B18F910F900FBE0F90FD
:1006A0001F901895A89588E10FB6F8948093600084
:1006B000109260000FBEF89417B8429A86E08093BB
:1006C000680088E080936C0084E080936D000E9455
:1006D00098000E9468010E9405030E94BF000E94CA
:1006E000980078940E9469050E94B70B0E947B08CD
:1006F00086E090E00E9409178F3F49F40E94840D24
:100700000E94490D86E090E061E00E9411178CEF95
:100710006FE00E94620800D088E391E0EDB7FEB779
:10072000928381830E9496140F900F9008950E94E7
:10073000F4022FE088E190E00FB6F894A89580933A
:1007400060000FBE209360008FEF9BE7A2E981500D
:100750009040A040E1F700C0000008950E94840D81
:100760000E94A6020E94490D00D086E491E0EDB7F8
:10077000FEB7928381830E9496140F900F90089584
:100780008CEF6FE00E94620800D082E691E0EDB746
:10079000FEB7928381830E94961483B7817F83BFC3
:1007A00083B7816083BF85B7806685BF8F7D85BF36
:1007B00083B7816083BF889583B78E7F83BF83B7FC
:1007C0008E7F83BF0F900F908CEF6FE00E946208C6
:1007D00000D08DE691E0EDB7FEB7928381830E9451
:1007E00096140F900F900895CF93DF938CEF6FE0E6
:1007F0000E94620800D087E891E0ADB7BEB71296BC
:100800009C938E9311970E94961415B818B81BB834
:1008100084B184B987B187B984B184B9CAE7D0E01B
:1008200088818F77888383B7846083BF83B7816033
:1008300083BF85B7806685BF85B78F79806485BFA4
:10084000889585B7806685BF8F7D85BF83B78E7F8E
:1008500083BF0F900F908CEF6FE00E946208888139
:1008600080688883299A429A8FEF93EDA0E38150A4
:100870009040A040E1F700C0000000D08BE991E07B
:10088000ADB7BEB712969C938E9311970E949614A3
:100890000F900F90DF91CF9108950E9497030895D4
:1008A00081E090916A03911180E080936A0308953A
:1008B000FF920F931F93DF93CF9300D0CDB7DEB796
:1008C0008C01F62ECE010196BE016E5F7F4F0E9415
:1008D000460A8DB79EB70C970FB6F8949EBF0FBE11
:1008E0008DBFEDB7FEB731968CEA91E0ADB7BEB7DC
:1008F00012969C938E931197D80114968D919C918A
:10090000159793838283898184831582F682178267
:100910008D919C9111979187808712968D919C91D2
:100920001397938782870E9496148DB79EB70C9673
:100930000FB6F8949EBF0FBE8DBF0F900F90CF9152
:10094000DF911F910F91FF900895CF93DF93C0E740
:10095000D3E0CE010E94CB010E94C7008FEF9DEE35
:10096000A2E081509040A040E1F700C000000E944A
:10097000A9010E94ED00682F80936903CE010E94B7
:1009800058040E94BB0890936C0380936B038CEF18
:100990006FE00E946208DF91CF9108951F93CF937B
:1009A000DF93EC01162F80916A03882309F444C079
:1009B0008091E9019091EA01A0E0B0E028813981BD
:1009C0004A815B81281739074A075B07A0F400D0EA
:1009D00000D08CEB91E0ADB7BEB712969C938E938E
:1009E000119714961C921E9213970E9496140F90C2
:1009F0000F900F900F908091EB019091EC01A0E08F
:100A0000B0E02C813D814E815F81281739074A076C
:100A10005B0790F400D000D08CEB91E0EDB7FEB70F
:100A20009283818381E090E0948383830E94961473
:100A30000F900F900F900F9000D000D0EDB7FEB741
:100A400031968DED91E0ADB7BEB712969C938E9323
:100A50001197128313820E9496140F900F900F909B
:100A60000F90DF91CF911F910895CF93DF939C0159
:100A7000CB01E0912F04F09130043097D9F05091E0
:100A80007603409177035417A8F060E009C0DA01BB
:100A9000A151BC4F420F531FEA0148814C936F5F35
:100AA000462F50E04817590794F31092760380932D
:100AB00077030995DF91CF910895E091ED03F091CF
:100AC000EE03309729F01092790310927A0309957A
:100AD0000895109276031092770310927903109282
:100AE0007A030E94210608950E9432068DE595E062
:100AF0000E94CB0685E395E00E94C6060E94690528
:100B00000895462F613208F040E26FEE73E00E94D4
:100B100036061092760380937703089591E09093C0
:100B20007B03809378031092790310927A030895DF
:100B3000809178036FE074E040917A0321E00E9495
:100B40006C061092790310927A0310927B03089539
:100B5000DF93CF930F92CDB7DEB7898380917B036C
:100B6000882391F080917A03803298F48091790300
:100B7000E82FF0E0E15FFB4F998190838F5F8093D6
:100B8000790380937A0305C0CE01019661E00E944B
:100B9000AC060F90CF91DF910895EF92FF921F93D3
:100BA000DF93CF930F92CDB7DEB7182F80917B03E1
:100BB000882381F0E12FF92F7F0107C0F701819190
:100BC0007F0169830E94A80569818E2D811B86178C
:100BD000A8F303C0812F0E94AC060F90CF91DF9144
:100BE0001F91FF90EF900895DC010D900020E9F730
:100BF000BD0161507040681B790B0E94CD050895BE
:100C00008091770390917603891B089590917603E4
:100C100080917703981748F4E92FF0E0E151FC4FF9
:100C200080819F5F90937603089580E0089590936C
:100C3000300480932F0408959093EE038093ED0386
:100C400008951092A003E9EBF0E080818E7F80830D
:100C500080818D7F808388E48093B80085E48093D1
:100C6000BC000895880F8093BA000895413288F53A
:100C70009091A0039923E1F791E09093A0039FEF57
:100C800090939F0310927D03942F915090937E0335
:100C9000880F816080937C0385EE8093BC008091F7
:100CA000A0038130E1F380917D03841710F440911B
:100CB0007D03EFE7F3E0262F372FD901242F30E013
:100CC0002E0F3F1F02C081918D93E217F307D9F7D2
:100CD00001C040E0842F08954132B0F59091A00307
:100CE0009923E1F792E09093A0039FEF90939F03E5
:100CF00010927D0340937E03DB01EFE7F3E050E0C9
:100D00004E0F5F1F02C09D919193E417F507D9F72D
:100D100090E0880F991F80937C0385EE8093BC0040
:100D2000222321F08091A0038230E1F380919F0380
:100D30008F3F61F080919F03803251F080919F033B
:100D4000803341F483E0089581E0089580E00895C0
:100D500082E0089584E008956132A0F42091A00318
:100D6000243091F46093C503DC01E8ECF3E070E01B
:100D70006E0F7F1F02C08D918193E617F707D9F799
:100D800080E0089581E0089582E008959093C30380
:100D90008093C20308959093C7038093C603089578
:100DA000882311F085EC01C085E88093BC0008958C
:100DB00085ED8093BC008091BC0084FDFCCF109237
:100DC000A003089585EC8093BC001092A0030895C1
:100DD0001F920F920FB60F9211242F933F934F93B0
:100DE0005F936F937F938F939F93AF93BF93EF9393
:100DF000FF938091B90090E0887F907080369105D4
:100E000009F4C2C081369105E4F58832910509F4F0
:100E10007EC089329105C4F48031910509F472C015
:100E20008131910544F4009709F413C1883091058C
:100E300009F013C167C08831910509F468C0803298
:100E4000910509F00AC178C08034910509F48AC07F
:100E5000813491054CF48033910509F46FC08833D7
:100E6000910509F0FAC06EC08035910509F46EC095
:100E70008835910509F47BC08834910509F0EDC0EF
:100E8000EAC08839910509F4DAC089399105ECF492
:100E90008837910509F478C0893791054CF4883674
:100EA000910509F471C08037910509F0D6C06CC076
:100EB0008838910509F4C3C08039910509F46AC0E6
:100EC0008038910509F0C9C065C0803B910509F4DF
:100ED0008EC0813B91054CF4803A910509F46CC0B9
:100EE000883A910509F0B9C082C0803C910509F4A7
:100EF000AAC0883C910509F4A6C0883B910509F079
:100F0000ACC08AC080917C038093BB0013C09091D9
:100F10007D0380917E03981708F09DC080917D032A
:100F2000E82FF0E0E158FC4F90819093BB008F5F79
:100F300080937D0381E084C080E201C080E38093E0
:100F40009F0389C088E380939F034EC080917D03F7
:100F50009091BB00E82FF0E0E158FC4F90838F5F49
:100F600080937D0390917D0380917E0365C0809185
:100F70007D039091BB00E82FF0E0E158FC4F908397
:100F80008F5F80937D0367C083E08093A0031092FE
:100F9000A103D0CF8091A103803208F050C080918E
:100FA000A1039091BB00E82FF0E0EE55FC4F908339
:100FB0008F5F8093A103BECF8091A103803230F474
:100FC000E091A103F0E0EE55FC4F10820E94D8069C
:100FD0006091A103E091C203F091C30382EA93E020
:100FE00070E009951092A1030E94E20636C084E0E9
:100FF0008093A0031092C4031092C503E091C6032E
:10100000F091C70309958091C503882329F481E0F5
:101010008093C5031092C8038091C403E82FF0E0C9
:10102000E853FC4F90819093BB008F5F8093C40383
:101030009091C4038091C503981708F47BCF80E09A
:101040000E94D0060AC081E00E94D0061092A00340
:1010500004C010929F030E94D806FF91EF91BF91A8
:10106000AF919F918F917F916F915F914F913F9140
:101070002F910F900FBE0F901F9018956AE00E945D
:1010800001148295807F890F0895982F92959F7003
:10109000990F292F220F220F290F8F70820F089589
:1010A0001F93182F88E60E948E05812F0E94A805A5
:1010B0000E94980588E661E00E9481050E9406066C
:1010C0001F9108951F93DF93CF930F92CDB7DEB793
:1010D000182F88E669830E948E056981862F0E94F9
:1010E000A805812F0E94A8050E9498050F90CF9116
:1010F000DF911F9108950F931F9381E10E94500883
:10110000082F82E10E945008182F8EEE61E10E94A4
:1011100062088DED62E10E94620881E10E94500840
:101120008E3E89F482E10E9450088D3D61F481E099
:101130008093E803802F61E10E946208812F62E1C1
:101140000E94620803C081E08093E9031F910F9120
:1011500008958091E80308958091E903089581E05E
:101160008093E8031092E90308951092E80381E068
:101170008093E9030895DF92EF92FF920F931F93FC
:10118000DF93CF93CDB7DEB729970FB6F894DEBFC4
:101190000FBECDBF88E60E948E0580E00E94A805A4
:1011A0000E94980588E667E00E9481058E010F5F26
:1011B0001F4F28E0E22EF12CEC0EFD1E0E940606C9
:1011C000F80181938F01EE15FF05C1F70E94980584
:1011D00089818F770E9445088093310410923204F0
:1011E0008A810E94450893E3E92E94E0F92E8093CA
:1011F0003304F70111828B810E944508082F10E00B
:1012000010933604009335048D810E944508809325
:101210003704F7011582DE808D2D8F710E944508FD
:1012200080933904F7011782D7FE07C08F810E948F
:10123000450890E08053984F06C08F810E94450872
:1012400090E08459984F90933C0480933B048C81A8
:101250000E94450880933D0410923E04011511053B
:1012600029F4109243041092420407C00C30110577
:1012700044F4109343040093420481E080934104BA
:1012800008C00C5010401093430400934204109285
:10129000410481E394E029960FB6F894DEBF0FBEB7
:1012A000CDBFCF91DF911F910F91FF90EF90DF9015
:1012B00008958F929F92AF92BF92CF92DF92EF925A
:1012C000FF920F931F93DF93CF93CDB7DEB729978C
:1012D0000FB6F894DEBF0FBECDBF4C015B018A0193
:1012E00088E60E948E0580E00E94A8050E9498056D
:1012F00088E667E00E9481057E010894E11CF11CEC
:1013000038E0C32ED12CCC0EDD1E0E940606F7015C
:1013100081937F01EC15FD05C1F70E949805011529
:10132000110529F089810E944508F8018083A114E4
:10133000B10429F08A810E944508F5018083811457
:10134000910429F08B810E944508F401808329963D
:101350000FB6F894DEBF0FBECDBFCF91DF911F91C6
:101360000F91FF90EF90DF90CF90BF90AF909F9044
:101370008F9008951F93CF93DF93EC0188E60E942E
:101380008E0580E00E94A8058A859B8527E0813D27
:10139000920734F0805D97409B878A8710E805C0EC
:1013A0008C5697409B878A8710E088810E943E0870
:1013B0000E94A8058A810E943E080E94A8058C818F
:1013C0000E943E080E94A8058C850E943E080E944B
:1013D000A8058E810E943E080E94A80588850E946B
:1013E0003E08810F0E94A8058A850E943E080E943F
:1013F000A8050E949805DF91CF911F9108951F9332
:10140000DF93CF9300D0CDB7DEB7182F88E649839E
:101410006A830E948E0580E00E94A8054981842F7E
:101420000E943E080E94A8056A81862F0E943E08FD
:101430000E94A805812F0E943E080E94A8050E94D4
:1014400098050F900F90CF91DF911F9108951F93F2
:10145000182F8091E903882351F40E94500811232A
:1014600011F08F7701C0806860E00E9462081F91D0
:1014700008958091E903882339F40E9450088095EB
:10148000881F8827881F089581E00895FF920F9391
:101490001F93CF93DF938C01EB01FC011082188224
:1014A0008091E803882301F588E60E948E0581E19A
:1014B0000E94A8050E94980588E662E00E948105C6
:1014C0000E940006882381F00E940606F82E0E94E2
:1014D0000606F801F082829586958695837099E1DB
:1014E000899F802D11248883DF91CF911F910F91C7
:1014F000FF9008950F931F93182F8091E80388237E
:1015000069F588E60E948E058EE00E94A8050E947B
:10151000980588E661E00E9481050E940606082F72
:1015200088E60E948E058EE00E94A805802F8062CA
:101530000E94A8050E949805112381F088E60E9468
:101540008E058EE00E94A8050E94980588E661E05D
:101550000E9481050E94060685FDF0CF1F910F9124
:1015600008951F93182F88E60E948E05812F885FAB
:101570000E94A8050E94980588E661E00E94810506
:101580000E9406061F9108950F931F93CF93DF9338
:10159000082F192FC0E0D0E08C2F0E94B10AF8016B
:1015A00081938F012196C833D105B1F7DF91CF9197
:1015B0001F910F9108951F93DF93CF930F92CDB793
:1015C000DEB7182F88E669830E948E056981862F11
:1015D000885F0E94A805812F0E94A8050E94980597
:1015E0000F90CF91DF911F9108950F931F93CF9389
:1015F000DF93082F192FC0E0D0E0F80181918F010F
:101600006C2F0E94DB0A2196C833D105B1F7DF9118
:10161000CF911F910F9108951F93182F8091E80388
:101620008823D1F088E60E948E0587E00E94A805F5
:101630000E94980588E661E00E9481050E940606E6
:10164000112319F0182F106102C0182F1F7E88E691
:101650000E948E0587E01AC088E60E948E058EE003
:101660000E94A8050E94980588E661E00E94810515
:101670000E940606112321F0182F10641B7F02C060
:10168000182F1F7B88E60E948E058EE00E94A80519
:10169000812F0E94A8050E9498051F9108950F931D
:1016A0001F93182F8091E8038823C9F088E60E94D1
:1016B0008E0587E00E94A8050E94980588E661E0F3
:1016C0000E9481050E940606082F0C7F88E60E9472
:1016D0008E0587E00E94A805802F812B19C088E61F
:1016E0000E948E058EE00E94A8050E94980588E65B
:1016F00061E00E9481050E940606877E1295107F98
:10170000182B88E60E948E058EE00E94A805812F86
:101710000E94A8050E9498051F910F9108951F939C
:10172000182F8091E903882301F188E60E948E0535
:101730008FE00E94A8050E94980588E661E00E945B
:1017400081050E940606112319F0182F186002C0A7
:10175000182F177F88E60E948E058FE00E94A8054B
:10176000812F0E94A8050E9498051F9108958091DD
:10177000E803882369F080E060E00E94DB0A80E0F3
:1017800061E00E94DB0A80E062E00E94DB0A0895CB
:1017900080E067E00E94620880E068E00E946208E2
:1017A00080E069E00E94620880E06AE00E946208CE
:1017B00080E06BE00E94620880E06CE00E946208BA
:1017C00080E06DE00E94620808950F931F93DF93FD
:1017D000CF930F92CDB7DEB7182F062F883108F0C0
:1017E0004DC06C3308F04AC04C3308F047C08091BC
:1017F000E803882379F0812F60E049830E94DB0AA7
:10180000802F61E00E94DB0A4981842F62E00E9400
:10181000DB0A34C02130A9F4842F0E943E0867E01F
:101820000E946208802F0E943E0868E00E946208C1
:10183000812F0E943E0869E00E94620881E86AE008
:1018400014C02230A1F487E06EE00E946208802F6D
:101850000E943E086BE00E946208812F0E943E08B1
:101860006CE00E94620881E86DE00E9462088FE0EF
:101870000E9450088C7F6FE00E9462080F90CF9109
:10188000DF911F910F910895FC01009731F0848141
:101890006281408126850E94E50B0895EF92FF92B8
:1018A0000F931F93CF93DF93EC018B017A0180910B
:1018B000E8038823B9F0209721F080E00E94B10A64
:1018C00088830115110529F081E00E94B10AF80111
:1018D0008083E114F104E9F082E00E94B10AF7018B
:1018E000808317C087E00E9450088F770E944508C8
:1018F000F701808388E00E9450088F770E94450896
:10190000F801808389E00E9450088F770E94450883
:101910008883DF91CF911F910F91FF90EF900895F1
:10192000DF93CF9300D00F92CDB7DEB7CE010196F3
:10193000BE016E5F7F4FAE014D5F5F4F0E944E0C48
:1019400085E394E029812093350410923604FC014C
:1019500032972A812083118204972B81FC012083F6
:1019600011820F900F900F90CF91DF910895FF9209
:101970000F931F93DF93CF9300D00F92CDB7DEB7B5
:101980008091E803882309F180E00E94B10AF82ED3
:1019900081E00E94B10A082F82E00E94B10A182F4C
:1019A000CE010196BE016E5F7F4FAE014D5F5F4F6E
:1019B0000E94590989818F15C1F48A818017A9F481
:1019C00081E09B81911789F411C08FE00E9450083B
:1019D000282F30E089010170107080FF04C08E7FD5
:1019E0006FE00E946208802F01C080E00F900F908E
:1019F0000F90CF91DF911F910F91FF900895CF939A
:101A0000DF93EC0112C08091C00087FFFCCF909162
:101A1000C60090935A048091EA03E82FF0E0EC5B53
:101A2000FB4F90838F5F8093EA0380915A048A373B
:101A300051F7E091EA03F0E0ED5BFB4F108210926A
:101A4000EA0384E494E00FC00E9444149091EA03F6
:101A5000FE01E90FF11D80838091EA038F5F80937F
:101A6000EA0380E090E066E472E00E9462149093E2
:101A70005904809358048091580490915904009718
:101A800019F780E380935A041092EA03DF91CF9113
:101A900008950F931F93DF93CF9300D000D000D011
:101AA000CDB7DEB78E010F5F1F4F86E0F8011192B0
:101AB0008A95E9F780EF91E00E94AB14C8010E947B
:101AC000FF0C89816A814B8121E00E943E028C815A
:101AD0006D814E8122E00E943E0289816A814B81A4
:101AE00021E00E94E50B8C816D814E8122E00E94F5
:101AF000E50B26960FB6F894DEBF0FBECDBFCF9193
:101B0000DF911F910F910895DF93CF9300D000D004
:101B100000D0CDB7DEB78AE192E00E94AB14CE01CF
:101B200001960E94FF0C89816A814B810E94FF0906
:101B300026960FB6F894DEBF0FBECDBFCF91DF91D2
:101B40000895EF92FF920F931F937B018C0120E089
:101B500030E040E05FE40E941D1187FD11C0C80124
:101B6000B70120E030E040E05FE40E94440F0E94B3
:101B70004D119B01AC01205030404040504806C000
:101B8000C801B7010E944D119B01AC01B901CA0106
:101B90001F910F91FF90EF900895A0E0B0E0E3ED6A
:101BA000FDE00C941114FC01EA018081823008F4FC
:101BB00038C1DB019C91923008F430C1843059F473
:101BC000943009F02EC1918111968C91119798173C
:101BD00009F021C126C1943009F420C19230B1F43A
:101BE000823009F01EC1CA01AF0128E0DA010D9070
:101BF000AD01DC010D92CD012150C1F7DB01119641
:101C00008C9111979181892389830AC1823009F4CB
:101C100005C1C280D380DB0112966D907C90139732
:101C200024813581468157811496ED90FD900D9168
:101C30001C911797C601861997095C0197FF04C08C
:101C4000AA24BB24A81AB90AB0E2AB16B1040CF05E
:101C500061C0181619066CF5370148010A2C04C03A
:101C600096948794779467940A94D2F781E090E0F1
:101C7000A0E0B0E00A2C04C0880F991FAA1FBB1F68
:101C80000A94D2F70197A109B1098E219F21A023BF
:101C9000B123EE24FF248701E3940097A105B10549
:101CA00019F4EE24FF248701E628F72808291929CA
:101CB0003CC00097D1F1CA0CDB1C39014A010A2C47
:101CC00004C096948794779467940A94D2F781E03D
:101CD00090E0A0E0B0E00A2C04C0880F991FAA1F72
:101CE000BB1F0A94D2F70197A109B109822393235C
:101CF000A423B52321E030E040E050E00097A105A7
:101D0000B10519F420E030E0A90126293729482936
:101D100059290BC06C147D0424F4EE24FF248701A0
:101D200004C0630120E030E0A9018181FB019181C1
:101D3000891709F445C0882349F0D801C701821BDF
:101D4000930BA40BB50B9C01AD0104C02E193F09E8
:101D5000400B510B57FD04C01982DB82CA820BC0B5
:101D600081E08983DB82CA82509540953095219528
:101D70003F4F4F4F5F4F2C833D834E835F830DC09A
:101D8000880F991FAA1FBB1F8C839D83AE83BF83BF
:101D90008A819B8101979B838A838C819D81AE81FF
:101DA000BF819C01AD0121503040404050402F3F49
:101DB000EFEF3E07EFEF4E07EFE35E0708F30BC0D0
:101DC0008983DB82CA822E0D3F1D401F511F2C8349
:101DD0003D834E835F8383E088832C813D814E81E8
:101DE0005F8157FF1DC0DA01C90181709070A0703A
:101DF000B0705695479537952795822B932BA42B3A
:101E0000B52B8C839D83AE83BF838A819B81019692
:101E10009B838A8305C0E8E4F2E003C0FB0101C0B4
:101E2000FE01CF01CDB7DEB7EEE00C942D14A0E299
:101E3000B0E0EDE1FFE00C94191469837A838B83A1
:101E40009C832D833E834F83588789E0E82EF12CB5
:101E5000EC0EFD1ECE010196B7010E943F138E01CC
:101E60000F5E1F4FCE010596B8010E943F13C701B8
:101E7000B801AE01475E5F4F0E94CD0D0E94711206
:101E8000A096E6E00C943514A0E2B0E0EAE4FFE0AE
:101E90000C94191469837A838B839C832D833E83EE
:101EA0004F8358878E01075F1F4FCE010196B801FF
:101EB0000E943F1391E1E92EF12CEC0EFD1ECE01A4
:101EC0000596B7010E943F138A8991E089278A8B82
:101ED000C801B701AE01475E5F4F0E94CD0D0E9461
:101EE0007112A096E6E00C943514A0E2B0E0EBE7A6
:101EF000FFE00C940D1469837A838B839C832D837C
:101F00003E834F835887CE010196BE01675F7F4FA6
:101F10000E943F13CE010596BE016F5E7F4F0E9467
:101F20003F139985923078F089898230C0F09430DF
:101F300019F4823041F4CBC0843019F4923079F432
:101F4000C6C0923051F481E02A859A89291709F494
:101F500080E08A87CE010996BCC0823051F481E0CE
:101F60002A859A89291709F480E08A8BCE01419647
:101F7000B0C06D847E848F849888ED88FE880F8938
:101F8000188DE0E2F0E080E090E0DC01AA24BB24C0
:101F9000650120E030E0A901B30161707070611546
:101FA0007105D1F02E0D3F1D401F511F1501260157
:101FB000280E391E4A1E5B1E81E090E0A0E0B0E0D2
:101FC0002E153F054007510718F080E090E0DC0136
:101FD000820D931DA41DB51DAA0CBB1CCC1CDD1CC1
:101FE00017FF09C061E0262E312C412C512CA2286C
:101FF000B328C428D528319749F0EE0CFF1C001FE8
:10200000111F9694879477946794C6CF6B897C89C7
:10201000EB85FC856E0F7F1F6E5F7F4F7C8F6B8F14
:1020200061E0EA857A89E71709F460E06A8F6B8DD1
:102030007C8D10C0FC01E170F070309729F056954E
:102040004795379527955068B695A79597958795A5
:102050006F5F7F4FB7FDEECF0CC0880F991FAA1F8F
:10206000BB1F57FD8160220F331F441F551F615056
:1020700070408030E0E09E07E0E0AE07E0E4BE079D
:1020800060F36B8F7C8F6FE7E62EF12C012D112D05
:10209000E822F9220A231B2360E4E616F104010575
:1020A000110561F487FD0AC021153105410551056F
:1020B00029F0805C9F4FAF4FBF4F80788D8F9E8FF0
:1020C000AF8FB8A383E0898FCE01499602C088E420
:1020D00092E00E947112A096E2E10C942914A8E10A
:1020E000B0E0E5E7F0E10C94151469837A838B8303
:1020F0009C832D833E834F8358878E01075F1F4F3C
:10210000CE010196B8010E943F1381E1E82EF12C27
:10211000EC0EFD1ECE010596B7010E943F13998576
:10212000923008F483C08989823008F47BC02A8504
:102130003A8923272A87943011F0923021F4981796
:1021400009F06CC071C0843039F41D861E861F866C
:10215000188A1C861B866AC0823019F484E089873D
:1021600065C08B859C852B893C89821B930B9C8742
:102170008B872D853E854F855889ED88FE880F8990
:10218000188D2E153F054007510738F4220F331FD5
:10219000441F551F01979C878B876FE170E0A12C2E
:1021A000B12CC12CA0E4DA2E80E090E0DC012E15E9
:1021B0003F054007510740F08A299B29AC29BD29DA
:1021C0002E193F09400B510BD694C794B794A7948E
:1021D000220F331F441F551F6150704041F76FE7B6
:1021E000E62EF12C012D112DE822F9220A231B23C2
:1021F00060E4E616F1040105110561F487FD0AC0EB
:10220000211531054105510529F0805C9F4FAF4FE5
:10221000BF4F80788D879E87AF87B88B8E01075F11
:102220001F4F04C0870102C008E412E0C8010E94E9
:1022300071126896EAE00C943114A8E1B0E0E3E290
:10224000F1E10C94191469837A838B839C832D8329
:102250003E834F8358878E01075F1F4FCE01019643
:10226000B8010E943F1381E1E82EF12CEC0EFD1E17
:10227000CE010596B7010E943F138985823040F058
:102280008989823028F0C801B7010E94A81301C0D3
:102290008FEF6896E6E00C943514ACE0B0E0E3E52F
:1022A000F1E10C941D1469837A838B839C83CE01A6
:1022B0000196BE016B5F7F4F0E943F138D8182307C
:1022C00081F1823070F1843021F48E81882369F1AC
:1022D0000AC02F81388537FD24C06E812F3131052A
:1022E0003CF0662311F120E030E040E050E821C0EE
:1022F0008EE190E0821B930B29853A854B855C85A6
:1023000004C056954795379527958A95D2F7662349
:1023100081F050954095309521953F4F4F4F5F4F3D
:1023200008C020E030E0A90104C02FEF3FEF4FEFDD
:102330005FE7B901CA012C96E2E00C943914A8E0D9
:10234000B0E0E5EAF1E10C9417147B018C011A82EC
:10235000611571058105910519F482E089835FC0DB
:1023600083E089838EE1C82ED12CDC82CB82ED8282
:10237000FE820F831887C801B7010E941712FC0163
:102380003197F7FF3AC0AA27BB27AE1BBF0B21E04E
:1023900030E040E050E00A2E04C0220F331F441FFB
:1023A000551F0A94D2F721503040404050402E2112
:1023B0003F214023512361E070E080E090E021154F
:1023C00031054105510519F460E070E0CB0104C00E
:1023D00016950795F794E794AA95D2F7E62AF72A77
:1023E000082B192BED82FE820F8318878EE190E077
:1023F0008E1B9F0B9C838B8312C0309781F00E2E17
:1024000004C0EE0CFF1C001F111F0A94D2F7ED82CE
:10241000FE820F831887CE1ADF0ADC82CB82CE01C0
:1024200001960E9471122896E8E00C943314AF9242
:10243000BF92CF92DF92EF92FF920F931F937B0197
:102440008C0180E0E81680E0F80681E0080780E073
:10245000180758F4EFEFEE16F1040105110509F025
:1024600090F480E090E0DC0117C0F0E0EF16F0E0BF
:10247000FF06F0E00F07F1E01F0750F480E190E065
:10248000A0E0B0E009C088E090E0A0E0B0E004C0C7
:1024900088E190E0A0E0B0E020E230E040E050E0F1
:1024A000281B390B4A0B5B0B5701680104C0D694FB
:1024B000C794B794A7948A95D2F7D601C501805BDB
:1024C0009D4FFC018081281B310941095109C90137
:1024D0001F910F91FF90EF90DF90CF90BF90AF9042
:1024E0000895EF92FF920F931F93CF93DF93FC0118
:1024F000248135814681578161818081823020F439
:102500004061EFEFF0E0A3C0843009F49BC082305B
:1025100009F492C0211531054105510509F48FC018
:102520000280F381E02D8FEFE238F8070CF05AC0FB
:10253000C2E8DFEFCE1BDF0BCA31D1056CF57901A4
:102540008A010C2E04C016950795F794E7940A9417
:10255000D2F781E090E0A0E0B0E00C2E04C0880F3C
:10256000991FAA1FBB1F0A94D2F70197A109B109AD
:1025700082239323A423B52321E030E040E050E000
:102580000097A105B10519F420E030E0A9012E293A
:102590003F29402B512B03C020E030E0A901DA0194
:1025A000C9018F779070A070B07080349105A1053B
:1025B000B10539F427FF09C0205C3F4F4F4F5F4FF3
:1025C00004C0215C3F4F4F4F5F4FE1E0F0E020300F
:1025D00080E0380780E0480780E4580728F5E0E00D
:1025E000F0E022C0E038F1056CF5E158FF4FDA0168
:1025F000C9018F779070A070B07080349105A105EB
:10260000B10539F427FF09C0205C3F4F4F4F5F4FA2
:1026100004C0215C3F4F4F4F5F4F57FF05C0569599
:10262000479537952795319687E056954795379585
:1026300027958A95D1F70BC0E0E0F0E005C0E0E017
:10264000F0E005C0EFEFF0E020E030E0A9018E2FD0
:10265000879588278795942F9F7767956627679535
:10266000E695E22EA92FA82BFE2FF62B622F732FB3
:102670008A2F9F2FCDB7DEB7E6E00C943514DC012E
:10268000FB012C9111963C91119712968C91129707
:10269000482F4F7750E0982F991F9927991F13962D
:1026A0006C911397862F880F892B90E0661F662701
:1026B000661F6183009739F52115310541055105E4
:1026C00011F482E029C082E89FEF9383828367E060
:1026D000220F331F441F551F6A95D1F783E0808373
:1026E00009C0220F331F441F551F82819381019718
:1026F00093838283203080E0380780E0480780E4BD
:10270000580778F320C08F3F910579F421153105E2
:102710004105510519F484E08083089544FF03C006
:1027200081E0808310C010820EC08F579040938349
:10273000828383E0808387E0220F331F441F551F6D
:102740008A95D1F75064248335834683578308954F
:10275000FC01DB019081923008F449C08C918230F9
:1027600008F445C0943051F461818430B1F511967C
:102770002C91119730E0261B310941C0843021F0A3
:10278000923041F48230B1F111968C9111978823E7
:10279000A1F12DC06181823001F111968C911197C8
:1027A0006817D9F42281338112968D919C911397E9
:1027B0008217930794F028173907BCF024813581DC
:1027C0004681578114968D919D910D90BC91A02DBD
:1027D00082179307A407B50718F4662341F00DC0CC
:1027E000281739074A075B0728F4662331F021E0F0
:1027F00030E005C020E030E002C02FEF3FEFC9011C
:102800000895991B79E004C0991F961708F0961B4C
:10281000881F7A95C9F7809508952F923F924F921D
:102820005F926F927F928F929F92AF92BF92CF9260
:10283000DF92EF92FF920F931F93CF93DF93CDB769
:10284000DEB7CA1BDB0B0FB6F894DEBF0FBECDBFE1
:1028500009942A88398848885F846E847D848C84B2
:102860009B84AA84B984C884DF80EE80FD800C81BB
:102870001B81AA81B981CE0FD11D0FB6F894DEBF9E
:102880000FBECDBFED010895FC0188279927E8947C
:1028900021912032E9F3293010F02E30C8F32B3289
:1028A00041F02D3239F4689404C00E948E14820FD6
:1028B000911D219120532A30C0F31EF490958195EB
:1028C0009F4F08954BEE53E00E9467140895FA015C
:1028D000A191B081009719F41097E1F0CD01DC01CE
:1028E000CD010D90002011F4C00113C0FB01219116
:1028F000222319F02015D9F7F3CFFB0121912015E0
:1029000019F41E92119606C02223C1F70D900020E3
:10291000A1F7D001FA01A193B08308957AE0979FBF
:10292000902D879F802D910D11240895A0E0B0E097
:10293000ECE9F4E10C941D14FE013596619171915E
:1029400080915D0490915E04AF010E942215209653
:10295000E2E00C943914EF92FF920F931F93CF9300
:10296000DF938C01E0915D04F0915E04838181FF2F
:102970001FC0C0E0D0E00AC0DB011896ED91FC91C9
:1029800019970995009711F0CFEFDFEFF8018191CA
:102990008F0160915D0470915E04882369F7DB010B
:1029A0001896ED91FC9119978AE00995009711F01E
:1029B000CFEFDFEFCE01CDB7DEB7E6E00C943514F4
:1029C00011F40EF4EEC2DFC2FED2D0F39923D9F394
:1029D000CEF39F57550B87FFE7D20024A0E640EACD
:1029E000900180585695979528F4805C660F771F64
:1029F000881F20F026173707480730F4621B730B37
:102A0000840B202931294A2BA69517940794202559
:102A100031254A2758F7660F771F881F20F02617A1
:102A20003707480730F4620B730B840B200D311D00
:102A3000411DA09581F7B901842F9158880F969573
:102A400087950895ACE0B0E0E8E2F5E10C940D1450
:102A50006C011B018A01FC0117821682838181FFB0
:102A6000D1C12E010894411C511CF6019381F10142
:102A700093FD859193FF81911F01882309F4BEC1C5
:102A8000853239F493FD859193FF81911F01853241
:102A900029F490E0B6010E943917E7CFEE24FF2415
:102AA00020E02032B0F48B3269F08C3228F480328E
:102AB00051F0833271F40BC08D3239F0803349F418
:102AC00021602CC02260246029C0286027C02061BA
:102AD00025C027FD2CC0382F30533A3098F426FFFC
:102AE00008C08E2D880FE82EEE0CEE0CE80EE30EDB
:102AF00015C08F2D880FF82EFF0CFF0CF80EF30E6B
:102B000020620CC08E3221F426FD78C1206406C0FC
:102B10008C3611F4206802C0883649F4F10193FD27
:102B2000859193FF81911F01882309F0BACF982FD7
:102B30009554933018F09052933028F40C5F1F4F47
:102B4000FFE3F9830DC0833631F0833771F08335AD
:102B500009F060C022C0F801808189830E5F1F4F99
:102B6000420171E0A72EB12C16C062E0662E712CD6
:102B7000600E711EF8018080918026FF03C06E2DCB
:102B800070E002C06FEF7FEFC4012C870E942E1708
:102B90005C0183012C852F7717C052E0652E712CC4
:102BA000600E711EF8018080918026FF03C06E2D9B
:102BB00070E002C06FEF7FEFC4012C870E942317E3
:102BC0005C012C852068830123FD20C008C080E2C1
:102BD00090E0B6012C870E943917FA942C858F2D2E
:102BE00090E0A816B90698F311C0F40127FD85916D
:102BF00027FF81914F0190E0B6012C870E94391781
:102C00002C85F110FA940894A108B108A114B1041C
:102C100061F7F1C0843611F0893649F527FF08C005
:102C2000F80160817181828193810C5F1F4F09C01F
:102C3000F80160817181882777FD8095982F0E5F5C
:102C40001F4F4FE6B42EB22297FF09C09095809592
:102C5000709561957F4F8F4F9F4FF0E8BF2AA2017B
:102C60002AE030E00E946517782E741845C0853739
:102C700031F43FEEB32EB2222AE030E025C099EFC6
:102C8000B92EB2228F36C1F0803720F4883509F092
:102C9000B5C00DC0803721F0883709F0AFC002C041
:102CA00020E1B22AB4FE0BC084E0B82A08C0B4FE0A
:102CB00009C0E6E0BE2A06C028E030E005C020E1F9
:102CC00030E002C020E132E0B7FE08C0F8016081C8
:102CD0007181828193810C5F1F4F07C0F801608171
:102CE000718180E090E00E5F1F4FA2010E94651786
:102CF000782E7418FFE7BF22B6FE0BC02EEFB2226B
:102D00007E1438F4B4FE07C0B2FC05C08FEEB822C2
:102D100002C0A72C01C0AE2C8B2D90E0B4FE0DC0DC
:102D2000FE01E70DF11D2081203319F4E9EEBE22EA
:102D300009C0A394B2FE06C004C0867890700097C4
:102D400009F0A3948B2C9924B3FC14C0B0FE0FC0DF
:102D5000AF1428F4E72CEF0CEA18AF2C08C0E72CCE
:102D600006C080E290E0B6010E943917A394AF1428
:102D7000C0F304C0AF1410F4FA1801C0FF2484FE9D
:102D80000FC080E390E0B6010E94391782FE1FC099
:102D900081FE03C088E590E010C088E790E00DC098
:102DA000C40186789070009791F081FC02C080E2A7
:102DB00001C08BE2B7FC8DE290E0B6010E943917AA
:102DC00006C080E390E0B6010E943917EA947E14B1
:102DD000C0F37A94F201E70DF11D808190E0B60115
:102DE0000E9439177720A9F706C080E290E0B6016B
:102DF0000E943917FA94FF20C1F737CEF6012681D9
:102E0000378102C02FEF3FEFC9012C96E2E10C940D
:102E10002914F999FECF92BD81BDF89A992780B502
:102E20000895262FF999FECF92BD81BDF89A01979A
:102E300000B4021639F01FBA20BD0FB6F894FA9A02
:102E4000F99A0FBE0895FC01059061507040011081
:102E5000D8F7809590958E0F9F1F0895FC016150C3
:102E6000704001900110D8F7809590958E0F9F1FAC
:102E700008950F931F93CF93DF938C01EB018B8108
:102E800081FF1BC082FF0DC02E813F818C819D81FF
:102E90002817390764F4E881F9810193F983E883FD
:102EA00006C0E885F985802F0995009731F48E8159
:102EB0009F8101969F838E8302C00FEF1FEFC80191
:102EC000DF91CF911F910F910895FA01AA27283021
:102ED00051F1203181F1E8946F936E7F6E5F7F4FE7
:102EE0008F4F9F4FAF4FB1E03ED0B4E03CD0670F63
:102EF000781F891F9A1FA11D680F791F8A1F911DB6
:102F0000A11D6A0F711D811D911DA11D20D009F405
:102F100068943F912AE0269F11243019305D319347
:102F2000DEF6CF010895462F4770405D4193B3E030
:102F30000FD0C9F7F6CF462F4F70405D4A3318F0D7
:102F4000495D31FD4052419302D0A9F7EACFB4E088
:102F5000A6959795879577956795BA95C9F7009740
:102F60006105710508959B01AC010A2E06945795E1
:102F7000479537952795BA95C9F7620F731F841F38
:102F8000951FA01D08959F3F31F0915020F4879523
:102F900077956795B795880F911D9695879597F9C1
:102FA00008959FEF80EC089591505040660F771F71
:102FB000881FD2F7089557FD9058440F551F59F0B8
:102FC0005F3F71F04795880F97FB991F61F09F3F16
:102FD00079F087950895121613061406551FF2CF3F
:102FE0004695F1DF08C0161617061806991FF1CF8F
:0E2FF00086957105610508940895F894FFCF49
:102FFE000000000200000000B10000000000416C63
:10300E0061726D20313A2025693A25693A25690A9F
:10301E0000416C61726D20323A2025693A256900B3
:10302E00416C61726D210061496E69742066696E32
:10303E006973686564004C656176696E6720436FDD
:10304E006E66696775726174696F6E206D656E75F7
:10305E00650049646C696E67204D4355004261639B
:10306E006B20746F207374616E646172642072756C
:10307E006E206D6F646500656E746572696E672093
:10308E00736C656570206D6F6465004261636B20C3
:10309E0075702072756E6E6E696E670025692C25CF
:1030AE00692C25692C25692C25690A004C6F77201F
:1030BE00566F6C7461676520416C65727420666F23
:1030CE0072204261747465727920256900446973B7
:1030DE0074616E63653A2569003303290278787846
:1030EE00456E74657220796F757220616C61726DB8
:1030FE00732C7465726D696E6174652062792074CB
:10310E007970696E67277A270D00456E7465722097
:10311E0063757272656E742074696D652C656E646C
:10312E00206D656E756520627920747970696E67A1
:10313E0020277A270D002C00000000000000000060
:10314E000001020203030303040404040404040440
:10315E000505050505050505050505050505050511
:10316E0006060606060606060606060606060606F1
:10317E0006060606060606060606060606060606E1
:10318E0007070707070707070707070707070707C1
:10319E0007070707070707070707070707070707B1
:1031AE0007070707070707070707070707070707A1
:1031BE000707070707070707070707070707070791
:1031CE000808080808080808080808080808080871
:1031DE000808080808080808080808080808080861
:1031EE000808080808080808080808080808080851
:1031FE000808080808080808080808080808080841
:10320E000808080808080808080808080808080830
:10321E000808080808080808080808080808080820
:10322E000808080808080808080808080808080810
:10323E000808080808080808080808080808080800
:00000001FF
