:1000000071C0000079C0000077C0000075C000001A
:1000100073C0000071C000006FC000006DC0000020
:100020006BC0000069C0000067C0000065C0000030
:1000300063C0000061C000005FC000005DC0000040
:100040005BC0000059C0000057C0000055C0000050
:1000500053C0000051C000004FC000004DC0000060
:100060004BC0000049C0000047C0000045C0000070
:1000700043C0000041C000003FC000003DC0000080
:100080003BC0000039C0000037C0000035C0000090
:1000900033C0000031C000002FC000002DC00000A0
:1000A0002BC0000029C0000027C0000025C00000B0
:1000B00023C0000021C000001FC000001DC00000C0
:1000C0001BC0000019C0000017C0000015C00000D0
:1000D00013C0000011C000000FC000000DC00000E0
:1000E0000BC0000011241FBECFEFD1E2DEBFCDBF99
:1000F00000E00CBF38D066C083CF80E18093B800A9
:10010000089584EA8093BC00ECEBF0E080818823C2
:10011000ECF78091B90008958093BB0084E8809348
:10012000BC00ECEBF0E080818823ECF78091B90013
:100130000895880F6064862BEFDF8091B9000895E1
:10014000CF93DF93D82FC62F80E18093B800D9DFFB
:1001500060E08D2FEEDF8C2FDFDF84E98093BC0021
:10016000DF91CF910895C9DF81E018D0C0E0D0E0E1
:100170006C2F88E3E5DF84B14C2F60E01ED02FEFB9
:1001800089E698E1215080409040E1F700C00000EE
:100190002196C13021E0D20759F7FFCF94B19E607C
:1001A00094B9209A2CB530E1839FC0011124822B91
:1001B0008CBD8CB5806C8CBD08954EBD0DB407FE12
:0801C000FDCF0895F894FFCF74
:00000001FF
